{"abi":[{"type":"function","name":"onReport","inputs":[{"name":"","type":"bytes","internalType":"bytes"},{"name":"report","type":"bytes","internalType":"bytes"}],"outputs":[],"stateMutability":"nonpayable"},{"type":"function","name":"supportsInterface","inputs":[{"name":"interfaceId","type":"bytes4","internalType":"bytes4"}],"outputs":[{"name":"","type":"bool","internalType":"bool"}],"stateMutability":"pure"}],"bytecode":{"object":"0x6080604052348015600f57600080fd5b506113d38061001f6000396000f3fe608060405234801561001057600080fd5b50600436106100365760003560e01c806301ffc9a71461003b578063805f21321461006b575b600080fd5b61005560048036038101906100509190610994565b610087565b60405161006291906109dc565b60405180910390f35b61008560048036038101906100809190610a5c565b610159565b005b60007f805f2132000000000000000000000000000000000000000000000000000000007bffffffffffffffffffffffffffffffffffffffffffffffffffffffff1916827bffffffffffffffffffffffffffffffffffffffffffffffffffffffff1916148061015257507f01ffc9a7000000000000000000000000000000000000000000000000000000007bffffffffffffffffffffffffffffffffffffffffffffffffffffffff1916827bffffffffffffffffffffffffffffffffffffffffffffffffffffffff1916145b9050919050565b60008060008060008060008060008a8a8101906101769190610be4565b98509850985098509850985098509850985060008073ffffffffffffffffffffffffffffffffffffffff168573ffffffffffffffffffffffffffffffffffffffff16146101c357846101c5565b855b90506000899050600060ff168b60ff16036103cc578873ffffffffffffffffffffffffffffffffffffffff166323b872dd88308b6040518463ffffffff1660e01b815260040161021793929190610cde565b6020604051808303816000875af1158015610236573d6000803e3d6000fd5b505050506040513d601f19601f8201168201806040525081019061025a9190610d41565b610299576040517f08c379a000000000000000000000000000000000000000000000000000000000815260040161029090610df1565b60405180910390fd5b8873ffffffffffffffffffffffffffffffffffffffff1663095ea7b38b8a6040518363ffffffff1660e01b81526004016102d4929190610e11565b6020604051808303816000875af11580156102f3573d6000803e3d6000fd5b505050506040513d601f19601f820116820180604052508101906103179190610d41565b610356576040517f08c379a000000000000000000000000000000000000000000000000000000000815260040161034d90610eac565b60405180910390fd5b8073ffffffffffffffffffffffffffffffffffffffff1663617ba0378a8a85886040518563ffffffff1660e01b81526004016103959493929190610edb565b600060405180830381600087803b1580156103af57600080fd5b505af11580156103c3573d6000803e3d6000fd5b50505050610921565b600160ff168b60ff160361058e57600073ffffffffffffffffffffffffffffffffffffffff168373ffffffffffffffffffffffffffffffffffffffff1603610449576040517f08c379a000000000000000000000000000000000000000000000000000000000815260040161044090610f92565b60405180910390fd5b8273ffffffffffffffffffffffffffffffffffffffff166323b872dd88308b6040518463ffffffff1660e01b815260040161048693929190610cde565b6020604051808303816000875af11580156104a5573d6000803e3d6000fd5b505050506040513d601f19601f820116820180604052508101906104c99190610d41565b610508576040517f08c379a00000000000000000000000000000000000000000000000000000000081526004016104ff90611024565b60405180910390fd5b8073ffffffffffffffffffffffffffffffffffffffff166369328dec8a8a8a6040518463ffffffff1660e01b815260040161054593929190611044565b6020604051808303816000875af1158015610564573d6000803e3d6000fd5b505050506040513d601f19601f820116820180604052508101906105889190611090565b50610920565b600260ff168b60ff16036106d1578073ffffffffffffffffffffffffffffffffffffffff1663a415bcad8a8a8888876040518663ffffffff1660e01b81526004016105dd9594939291906110bd565b600060405180830381600087803b1580156105f757600080fd5b505af115801561060b573d6000803e3d6000fd5b505050508873ffffffffffffffffffffffffffffffffffffffff1663a9059cbb888a6040518363ffffffff1660e01b815260040161064a929190610e11565b6020604051808303816000875af1158015610669573d6000803e3d6000fd5b505050506040513d601f19601f8201168201806040525081019061068d9190610d41565b6106cc576040517f08c379a00000000000000000000000000000000000000000000000000000000081526004016106c390611182565b60405180910390fd5b61091f565b600360ff168b60ff16036108e3578873ffffffffffffffffffffffffffffffffffffffff166323b872dd88308b6040518463ffffffff1660e01b815260040161071c93929190610cde565b6020604051808303816000875af115801561073b573d6000803e3d6000fd5b505050506040513d601f19601f8201168201806040525081019061075f9190610d41565b61079e576040517f08c379a000000000000000000000000000000000000000000000000000000000815260040161079590611214565b60405180910390fd5b8873ffffffffffffffffffffffffffffffffffffffff1663095ea7b38b8a6040518363ffffffff1660e01b81526004016107d9929190610e11565b6020604051808303816000875af11580156107f8573d6000803e3d6000fd5b505050506040513d601f19601f8201168201806040525081019061081c9190610d41565b61085b576040517f08c379a0000000000000000000000000000000000000000000000000000000008152600401610852906112a6565b60405180910390fd5b8073ffffffffffffffffffffffffffffffffffffffff1663573ade818a8a88866040518563ffffffff1660e01b815260040161089a94939291906112c6565b6020604051808303816000875af11580156108b9573d6000803e3d6000fd5b505050506040513d601f19601f820116820180604052508101906108dd9190611090565b5061091e565b6040517f08c379a00000000000000000000000000000000000000000000000000000000081526004016109159061137d565b60405180910390fd5b5b5b5b505050505050505050505050505050565b600080fd5b600080fd5b60007fffffffff0000000000000000000000000000000000000000000000000000000082169050919050565b6109718161093c565b811461097c57600080fd5b50565b60008135905061098e81610968565b92915050565b6000602082840312156109aa576109a9610932565b5b60006109b88482850161097f565b91505092915050565b60008115159050919050565b6109d6816109c1565b82525050565b60006020820190506109f160008301846109cd565b92915050565b600080fd5b600080fd5b600080fd5b60008083601f840112610a1c57610a1b6109f7565b5b8235905067ffffffffffffffff811115610a3957610a386109fc565b5b602083019150836001820283011115610a5557610a54610a01565b5b9250929050565b60008060008060408587031215610a7657610a75610932565b5b600085013567ffffffffffffffff811115610a9457610a93610937565b5b610aa087828801610a06565b9450945050602085013567ffffffffffffffff811115610ac357610ac2610937565b5b610acf87828801610a06565b925092505092959194509250565b600060ff82169050919050565b610af381610add565b8114610afe57600080fd5b50565b600081359050610b1081610aea565b92915050565b600073ffffffffffffffffffffffffffffffffffffffff82169050919050565b6000610b4182610b16565b9050919050565b610b5181610b36565b8114610b5c57600080fd5b50565b600081359050610b6e81610b48565b92915050565b6000819050919050565b610b8781610b74565b8114610b9257600080fd5b50565b600081359050610ba481610b7e565b92915050565b600061ffff82169050919050565b610bc181610baa565b8114610bcc57600080fd5b50565b600081359050610bde81610bb8565b92915050565b60008060008060008060008060006101208a8c031215610c0757610c06610932565b5b6000610c158c828d01610b01565b9950506020610c268c828d01610b5f565b9850506040610c378c828d01610b5f565b9750506060610c488c828d01610b95565b9650506080610c598c828d01610b5f565b95505060a0610c6a8c828d01610b5f565b94505060c0610c7b8c828d01610b95565b93505060e0610c8c8c828d01610bcf565b925050610100610c9e8c828d01610b5f565b9150509295985092959850929598565b6000610cb982610b16565b9050919050565b610cc981610cae565b82525050565b610cd881610b74565b82525050565b6000606082019050610cf36000830186610cc0565b610d006020830185610cc0565b610d0d6040830184610ccf565b949350505050565b610d1e816109c1565b8114610d2957600080fd5b50565b600081519050610d3b81610d15565b92915050565b600060208284031215610d5757610d56610932565b5b6000610d6584828501610d2c565b91505092915050565b600082825260208201905092915050565b7f4161766552656365697665723a20737570706c79207472616e7366657246726f60008201527f6d206661696c6564000000000000000000000000000000000000000000000000602082015250565b6000610ddb602883610d6e565b9150610de682610d7f565b604082019050919050565b60006020820190508181036000830152610e0a81610dce565b9050919050565b6000604082019050610e266000830185610cc0565b610e336020830184610ccf565b9392505050565b7f4161766552656365697665723a20737570706c7920617070726f76652066616960008201527f6c65640000000000000000000000000000000000000000000000000000000000602082015250565b6000610e96602383610d6e565b9150610ea182610e3a565b604082019050919050565b60006020820190508181036000830152610ec581610e89565b9050919050565b610ed581610baa565b82525050565b6000608082019050610ef06000830187610cc0565b610efd6020830186610ccf565b610f0a6040830185610cc0565b610f176060830184610ecc565b95945050505050565b7f4161766552656365697665723a2061546f6b656e41646472657373207265717560008201527f6972656420666f72207769746864726177000000000000000000000000000000602082015250565b6000610f7c603183610d6e565b9150610f8782610f20565b604082019050919050565b60006020820190508181036000830152610fab81610f6f565b9050919050565b7f4161766552656365697665723a207769746864726177207472616e736665724660008201527f726f6d206661696c656400000000000000000000000000000000000000000000602082015250565b600061100e602a83610d6e565b915061101982610fb2565b604082019050919050565b6000602082019050818103600083015261103d81611001565b9050919050565b60006060820190506110596000830186610cc0565b6110666020830185610ccf565b6110736040830184610cc0565b949350505050565b60008151905061108a81610b7e565b92915050565b6000602082840312156110a6576110a5610932565b5b60006110b48482850161107b565b91505092915050565b600060a0820190506110d26000830188610cc0565b6110df6020830187610ccf565b6110ec6040830186610ccf565b6110f96060830185610ecc565b6111066080830184610cc0565b9695505050505050565b7f4161766552656365697665723a20626f72726f77207472616e7366657220666160008201527f696c656400000000000000000000000000000000000000000000000000000000602082015250565b600061116c602483610d6e565b915061117782611110565b604082019050919050565b6000602082019050818103600083015261119b8161115f565b9050919050565b7f4161766552656365697665723a207265706179207472616e7366657246726f6d60008201527f206661696c656400000000000000000000000000000000000000000000000000602082015250565b60006111fe602783610d6e565b9150611209826111a2565b604082019050919050565b6000602082019050818103600083015261122d816111f1565b9050919050565b7f4161766552656365697665723a20726570617920617070726f7665206661696c60008201527f6564000000000000000000000000000000000000000000000000000000000000602082015250565b6000611290602283610d6e565b915061129b82611234565b604082019050919050565b600060208201905081810360008301526112bf81611283565b9050919050565b60006080820190506112db6000830187610cc0565b6112e86020830186610ccf565b6112f56040830185610ccf565b6113026060830184610cc0565b95945050505050565b7f4161766552656365697665723a20756e737570706f72746564206f706572617460008201527f696f6e0000000000000000000000000000000000000000000000000000000000602082015250565b6000611367602383610d6e565b91506113728261130b565b604082019050919050565b600060208201905081810360008301526113968161135a565b905091905056fea26469706673582212204db3ce1304fb82e2893c6d9bf4a2e91fb506b133736037d5fbd7237f1dd5b89864736f6c634300081b0033","linkReferences":{}},"methodIdentifiers":{"onReport(bytes,bytes)":"805f2132","supportsInterface(bytes4)":"01ffc9a7"},"id":0}